:040000008CEF00F091
:10000800F2A241D0F2A83FD0F2920B0E0B6E260E50
:100018000C6E5D0E0D6E0D2EFED70C2EFCD70B2E22
:10002800FAD70000000083808382330E0B6EBB0E6C
:100038000C6EDF0E0D6E0D2EFED70C2EFCD70B2E80
:10004800FAD700000000839083921F0E0B6E710E8A
:100058000C6E1E0E0D6E0D2EFED70C2EFCD70B2E21
:10006800FAD7000082800B0E0B6E260E0C6E5D0E0A
:100078000D6E0D2EFED70C2EFCD70B2EFAD70000D6
:100088000000F298F086F0A042D0F0A640D0F090A0
:100098000B0E0B6E260E0C6E5D0E0D6E0D2EFED722
:1000A8000C2EFCD70B2EFAD7000000008290330EDE
:1000B8000B6EBB0E0C6EDF0E0D6E0D2EFED70C2ECA
:1000C800FCD70B2EFAD70000000083848386330EFA
:1000D8000B6EBB0E0C6EDF0E0D6E0D2EFED70C2EAA
:1000E800FCD70B2EFAD700000000839483960B0EE2
:1000F8000B6E260E0C6E5D0E0D6E0D2EFED70C2EA1
:10010800FCD70B2EFAD700000000F288F0961100F9
:100118000F0EC16EF28EFF0E936EF292F288F18C82
:10012800F090F096F18A946A829082828294829604
:100138008298829A829C829E956A83908392839405
:0C01480083968398839A839C839EFFD744
:020000040030CA
:0D000100021F1EFF8381FF0FC00FE00F40A4
:00000001FF
